S02B000045617379415652365F41546D65676131365F494E54305F537472616E67654265686176696F722E73B0
S11300000C942A000C9436000C9434000C943400A4
S11300100C9434000C9434000C9434000C9434008C
S11300200C9434000C9434000C9434000C9434007C
S11300300C9434000C9434000C9434000C9434006C
S11300400C9434000C9434000C9434000C9434005C
S11300500C94340011241FBECFE5D4E0DEBFCDBF25
S11300600E9450000C945E000C9400001F920F92AA
S11300700FB60F9211242F938F939F931BBA2FE3E4
S11300808DE093E0215080409040E1F700C00000F3
S11300909F918F912F910F900FBE0F901F901895E5
S11300A08FEF8ABB80EF8BBB11BA12BA8BB7806C0F
S11300B08BBF85B7826085BF7894FFCFF894FFCF5C
S9030000FC
