:100000000C942A000C9436000C9434000C943400A8
:100010000C9434000C9434000C9434000C94340090
:100020000C9434000C9434000C9434000C94340080
:100030000C9434000C9434000C9434000C94340070
:100040000C9434000C9434000C9434000C94340060
:100050000C94340011241FBECFE5D4E0DEBFCDBF29
:100060000E9441000C9451000C9400001F920F92CA
:100070000FB60F9211241BBA0F900FBE0F901F9056
:1000800018958FEF8ABB90EF9BBB11BA82BB80B7EC
:1000900080BF8BB7806C8BBF85B7886085BF789435
:0600A000FFCFF894FFCF32
:00000001FF
